:020000040800F2
:1000000068040020AD010008C1190008331600087B
:10001000BD1900085B070008A91B000800000000CC
:10002000000000000000000000000000C7190008E8
:100030005908000800000000C5190008191A000836
:10004000C7010008C7010008C7010008C701000870
:10005000C7010008C7010008C7010008C701000860
:10006000C7010008C7010008C7010008C701000850
:10007000C7010008C7010008C7010008C701000840
:10008000C7010008C7010008C70100080000000000
:10009000000000000000000000000000C701000890
:1000A000C7010008F51A0008C7010008C7010008C9
:1000B000C7010008C7010008C7010008C701000800
:1000C000C7010008C7010008C7010008C7010008F0
:1000D000C7010008C7010008C701000800000000B0
:1000E000C7010008C7010008C701000800000000A0
:1000F000000000000000000000000000C701000830
:1001000000000000C7010008C7010008C70100087F
:1001100000000000000000000000000000000000DF
:10012000C7010008C7010008C7010008C70100088F
:10013000C7010008000000000000000000000000EF
:10014000000000000000000000000000C7010008DF
:10015000C7010008C7010008C7010008C70100085F
:10016000C7010008C70100080000000000000000EF
:10017000000000000000000000000000000000007F
:1001800000000000C701000800000000000000009F
:10019000C7010008DFF810D000F05EFA0048004701
:1001A000DD240008AFF30080680400200648804783
:1001B00006480047FEE7FEE7FEE7FEE7FEE7FEE74C
:1001C000FEE7FEE7FEE7FEE7D91A00089501000802
:1001D0002DE9F05F0546002092469B46884606467C
:1001E000814640241BE0284641464746224600F00F
:1001F0006AF853465A46C01A914110D31146184620
:10020000224600F051F82D1A67EB01084F462246AE
:100210000120002100F048F817EB00094E41201E94
:10022000A4F10104DFDC484631462A464346BDE8D6
:10023000F09FD2B201E000F8012B491EFBD27047BB
:100240000022F6E710B513460A4604461946FFF7A2
:10025000F0FF204610BD00F0004230F000400AD010
:10026000C10D01F56071C0F3160042EA0151C208E8
:1002700040071143704700200146704730B50B46D8
:10028000014600202022012409E021FA02F59D42C6
:1002900005D303FA02F5491B04FA02F52844151E9A
:1002A000A2F10102F1DC30BD202A04DB203A00FA81
:1002B00002F1002070479140C2F1200320FA03F3BD
:1002C000194390407047202A04DB203A21FA02F0BB
:1002D0000021704721FA02F3D040C2F12002914080
:1002E0000843194670472DE9FE4F804681EA030016
:1002F000C00F0C46009021F0004123F00045B8EB00
:100300000200A94105D24046214690461C460B46B4
:10031000024623F00040104347D0270DC7F30A00E0
:10032000C3F30A510290401A019040286BDAC3F3DC
:10033000130040F4801B0098924620B10023D2EBBA
:10034000030A63EB0B0B01985946C0F1400250467B
:10035000FFF7AAFF06460D4650465946019A00F09F
:100360008DF910EB08006141002487EA115284EAFC
:10037000E7731A4340D0009A62B3019A012A4FEA08
:10038000075215DC001B61EB02014FF0004202EA4C
:100390000752CDE90042001C41F5801132462B4640
:1003A00000F08DF903B0BDE8F08F40462146F9E733
:1003B000001B61EB0201001C41F5801300185B413A
:1003C0002018A2F5001747EB030140EAD570B619D3
:1003D0006D4111E06D084FEA360645EAC0754FEAF7
:1003E0000752001B61EB0201001C41F58011490816
:1003F0004FEA30000019514132462B4603B0BDE8A8
:10040000F04F00F04DB90098012240000023D0EBDE
:10041000020263EBE073009821464FEAE074B8EB08
:10042000000061EB0401E9E783F000435BE781F042
:10043000004158E72DE9FE4F81EA030404F000442F
:1004400021F0004100944FF0000B23F0004350EAEC
:1004500001045ED052EA03045BD0C3F30A54C1F333
:100460000A552C44A4F2F3340194A0FB0254C1F3C6
:10047000130141F48011C3F3130343F4801301FB10
:10048000024400FB034E840A970A44EA815447EA77
:100490008357A4FB076802958D0A05FB07854FEA81
:1004A000932C04FB0C542705029D4FEA065847EA9B
:1004B0001637B5EB08056EEB070C870E920E47EA70
:1004C000811742EA8312A7FB0201B6EB0B0164EB32
:1004D00000042B0D43EA0C335E1844EB1C50DA4643
:1004E0005146E7FB0201C5F313044FEA0B3343EA1D
:1004F00014534FEA0432019C43EA0603A4F10C04AE
:100500000294009CCDE900B400F0D9F803B0BDE836
:10051000F08F00200146F9E72DE9F04D81EA030450
:1005200004F0004B21F0004514464FF0000A23F080
:10053000004150EA050220D054EA01021DD0C5F363
:100540000A570246C5F31303C1F31300C1F30A5659
:1005500040F4801543F48013A7EB0608101BD64621
:1005600008F2FD3873EB050002D308F1010801E041
:1005700092185B41B8F1000F03DA00200146BDE894
:10058000F08D00204FF48011064684460EE0171BC4
:1005900073EB050705D3121B63EB050306434CEA17
:1005A000010C49084FEA300092185B4150EA0107FC
:1005B000EDD152EA030012D082EA040083EA050179
:1005C000084305D0101BAB4106D20122002306E0F0
:1005D00000224FF0004302E06FF0010253101AEBCB
:1005E00006004CEB085110EB0A0041EB0B01BDE893
:1005F000F04D00F055B8C1F30A52C1F3130140F2B7
:10060000FF3341F480119A4202DA0020014670471C
:1006100040F233439A42A2F2334202DC5242FFF7E5
:1006200052BEFFF741BE000030B5041E71F1000458
:1006300004DB4FF00044404264EB0101141E73F1EF
:10064000000405DB1C464FF00043524263EB0403F9
:10065000994208BF904230BD064C074D06E0E06865
:1006600040F0010394E8070098471034AC42F6D3F9
:10067000FFF794FDDC250008FC250008202A06DB96
:10068000CB17203A41FA02F043EAE07306E041FA60
:1006900002F3D040C2F1200291400843194670474E
:1006A00010B5141E73F1000408DA401C41F100017A
:1006B00092185B411A4301D120F0010010BD2DE9D1
:1006C000F04D92469B4611B1B1FA81F202E0B0FAC8
:1006D00080F220329046FFF7E7FD04460F4640EADD
:1006E0000A0041EA0B0153465A46084313D011460B
:1006F00053EA010019D0C8F140025046FFF7E3FD6C
:1007000005460E46504659464246FFF7CDFD084382
:1007100005D0012004E020463946BDE8F08D0020D8
:10072000054346EAE0762C4337430A986305E40A1A
:10073000A0EB08000022FD0A44EA47540A3002D523
:1007400000200146E9E7010510196941DDE9084586
:1007500000196941BDE8F04DA2E700BFFEE70000C7
:1007600010B54FF48051114801F043F901221103F3
:100770000E4800F0DBF9012000F0D2F800224FF41F
:1007800080510A4800F0D2F9122000F0C9F8012285
:100790001103064800F0CAF9142001F091FE4FF44D
:1007A0008051024801F010F910BD00000000024025
:1007B00070B5002426E000BF4FF48051134800F0CC
:1007C000ADF90028F8D0322001F07AFE4FF48051C4
:1007D0000E4800F0A3F928B9C4F1070101208840B0
:1007E000854305E0C4F10701012088402843C5B2D4
:1007F00000BF4FF48051054800F090F90028F8D16F
:10080000601CC4B2082CD6DB284670BD0000024034
:1008100010B50024322001F053FE4FF480510D48F2
:1008200000F07CF958B9502001F04AFE4FF4805195
:10083000084800F073F908B1012400E0002400BF6B
:100840004FF48051034800F069F90028F8D12046A0
:1008500010BD0000000002407047000000B52DED03
:10086000048B85B0B0EE408A14216846FFF7E8FC9F
:100870000A2000F055F80121022000F0CDFF18EE0B
:10088000100AFFF7E8FC41EC190B53EC192B09A1F6
:10089000684601F08BF9684601F01EF80521022038
:1008A00000F0BAFF06A001F017F805B0BDEC048B0C
:1008B00000BD000048554D3A20252E32660000004C
:1008C0002500000000B52DED048B85B0B0EE408A08
:1008D00014216846FFF7B4FC0A2000F021F801213A
:1008E000084600F099FF18EE100AFFF7B4FC41EC3F
:1008F000190B53EC192B05A1684601F057F968460E
:1009000000F0EAFF05B0BDEC048B00BD54454D502E
:100910003A252E326600000072B600BFFEE70000E6
:1009200070B5044600F008F906462546681C10B16B
:1009300004480078054400BF00F0FEF8801BA84280
:10094000FAD370BD20000020F8B503460A46002502
:10095000002400200021CDE0012606FA01F51668EA
:1009600006EA0504AC4273D15668012E08D05668D9
:10097000022E05D05668112E02D05668122E13D1C1
:1009800098684F000326BE40B0434F00D668BE4073
:1009900030439860586801268E40B0431679C6F3FC
:1009A00000168E4030435860D8684F000326BE4082
:1009B000B0434F009668BE403043D8605668022E60
:1009C00002D05668122E13D1CF0803F1200656F834
:1009D00027004E07F70E0F26BE40B0434F07FF0E0D
:1009E0001669BE403043CF0803F1200646F82700C1
:1009F00018684F000326BE40B043167906F0030680
:100A00004F00BE4030431860566806F08056B6F17D
:100A1000805F6ED100BF00260096384E366846F4DF
:100A20008046364F3E603E46366806F48046009665
:100A300000BF00BF324E8F0856F827008E07370FD1
:100A40000F26BE40B0432F4EB34202D1002615E020
:100A50004FE02D4EB34201D101260FE02B4EB342A1
:100A600001D102260AE02A4EB34201D1032605E055
:100A7000284EB34201D1042600E007268F073F0F1E
:100A8000BE4030431E4E8F0846F82700224E306885
:100A9000A043566806F48036B6F5803F00D1204367
:100AA0001D4E3060361D3068A043566806F400368F
:100AB000B6F5003F00D12043174E361D3060361D7D
:100AC0003068A043566806F48016B6F5801F00D142
:100AD0002043114E08363060361D3068A0435668FA
:100AE00006F40016B6F5001F00D120430A4E0C365E
:100AF0003060491C1029FFF42FAFF8BD4438024084
:100B00000838014000000240000402400008024092
:100B1000000C024000100240003C014002461369F4
:100B20000B400BB1012000E0002070470AB1816149
:100B300001E00B04836170470148006870470000C2
:100B40001800002003480068034909780844014957
:100B500008607047180000202000002010B50D48E4
:100B6000006840F400700B4908600846006840F4D3
:100B7000806008600846006840F4807008600320C8
:100B800000F0A6F8002000F007F800F02BF8002095
:100B900010BD0000003C024070B504460E480078CD
:100BA0004FF47A71B1FBF0F00C490968B1FBF0F534
:100BB000284600F0FFFB08B1012070BD102C07D2C1
:100BC00000222146501E00F045F80548046001E06F
:100BD0000120F2E70020F0E72000002024000020A0
:100BE0001C00002008B500BF0020009010480068DD
:100BF00040F480400E4908600846006800F48040D8
:100C0000009000BF00BF00BF00200090081F0068D8
:100C100040F08050091F08600846006800F08050CE
:100C2000009000BF00BF072000F052F808BD000090
:100C30004438024001460846002809DB00F01F0343
:100C400001229A4043099B0003F1E023C3F80021ED
:100C500000BF70472DE9F05F80460D46164600271D
:100C600000F0B8FF074639462A46334601F0070030
:100C7000C0F1070ABAF1040F02D94FF0040A01E0EB
:100C8000C0F1070AD14600F1040ABAF1070F02D2F7
:100C90004FF0000A01E0A0F1030AD4464FF0010A28
:100CA0000AFA09FAAAF1010A0AEA020A0AFA0CFA8D
:100CB0004FF0010B0BFA0CFBABF1010B0BEA030B32
:100CC0004AEA0B042146404600F08CFFBDE8F09F45
:100CD00000BF00F00702064B19684FF6FF031940EA
:100CE000044B0B4343EA0221014B196000BF7047DC
:100CF0000CED00E00000FA0570B504460D460CB995
:100D0000012070BD5848006800F00F00A84209D2C9
:100D100055490D700846006800F00F00A84201D048
:100D20000120EEE7207800F0020002281DD1207893
:100D300000F00400042805D14C48006840F4E0505D
:100D40004A490860207800F00800082805D1474883
:100D5000006840F46040454908604448006820F05D
:100D6000F000A168084341490860207800F00100C4
:100D7000A8B36068012807D13C4808380068C0F370
:100D80004040B8B90120BCE76068022802D0606822
:100D9000032807D1354808380068C0F3406048B9D7
:100DA0000120AEE7314808380068C0F3400008B9B8
:100DB0000120A6E72D48006820F003006168084381
:100DC0002A490860FFF7B8FE064609E0FFF7B4FEBF
:100DD000801B41F28831884202D9032091E707E065
:100DE0002248006800F00C006168B0EB810FEDD183
:100DF0001D48006800F00F00A84209D91A490D707B
:100E00000846006800F00F00A84201D0012078E7F2
:100E1000207800F00400042807D11448006820F46A
:100E2000E050E168084311490860207800F00800AC
:100E3000082808D10D48006820F46040216940EA84
:100E4000C1000A49086000F019F808490968C1F3AF
:100E50000311074A515CC84006490860064800680B
:100E6000FFF79AFE00204CE7003C024008380240A1
:100E7000C4250008240000201C0000202DE9F047B4
:100E8000002400250026A1462548006800F00C003B
:100E900020B1042805D008283AD105E0DFF8849075
:100EA00039E0DFF8849036E01D48001F006800F04C
:100EB0003F041B48001F006800F4800078B11A4806
:100EC0001749091F0968C1F38811A0FB0170014689
:100ED000224600233846FFF77BF905460EE011480D
:100EE0000F49091F0968C1F38811A0FB0170014671
:100EF000224600233846FFF76BF905460848001FD5
:100F00000068C0F30140401C4600B5FBF6F902E062
:100F1000DFF8109000BF00BF4846BDE8F087000032
:100F2000083802400024F40000127A00F8B50446A4
:100F30000CB90120F8BD207800F00100002874D021
:100F4000F948006800F00C0004280DD0F64800684D
:100F500000F00C00082813D1F348001F006800F4CB
:100F60008000B0F5800F0BD1EF4808380068C0F35F
:100F70004040002859D06068002856D10120D9E7A8
:100F800000BF6068B0F5803F08D1E74808380068C6
:100F900040F48030E449083908601EE06068B0F52C
:100FA000A02F0DD1E0480838006840F48020DE49C9
:100FB000083908600846006840F4803008600CE09A
:100FC000D9480838006820F48030D74908390860CB
:100FD0000846006820F48020086000BF606890B177
:100FE000FFF7AAFD054606E0FFF7A6FD401B6428B3
:100FF00001D903209EE7CC4808380068C0F3404080
:101000000028F1D011E0FFF797FD054606E0FFF755
:1010100093FD401B642801D903208BE7C2480838A0
:101020000068C0F340400028F1D1207800F00200B1
:1010300002285FD1BC48006800F00C0058B1BA48E3
:10104000006800F00C0008281CD1B748001F006899
:1010500000F48000B0B9B44808380068C0F340001C
:1010600020B1E068012801D0012063E7AE480838CC
:10107000006820F0F800216940EAC100AA49083957
:10108000086037E0E06800B30120A8490860FFF776
:1010900053FD054606E0FFF74FFD401B022801D92E
:1010A000032047E7A04808380068C0F34000002844
:1010B000F1D09D480838006820F0F800216940EA26
:1010C000C10099490839086014E000209749086078
:1010D000FFF732FD054606E0FFF72EFD401B022814
:1010E00001D9032026E7904808380068C0F3400083
:1010F0000028F1D1207800F0080008282CD1606980
:10110000A8B101208A490860FFF716FD054606E0F0
:10111000FFF712FD401B022801D903200AE782488D
:101120006C300068C0F340000028F1D014E00020CB
:101130007F490860FFF700FD054606E0FFF7FCFC6D
:10114000401B022801D90320F4E677486C30006880
:10115000C0F340000028F1D1207800F004000428FA
:1011600070D1002770483830006800F0805090B986
:1011700000BF002000906C483830006840F080507C
:101180006949383108600846006800F080500090D6
:1011900000BF00BF01276748006800F48070B0B945
:1011A0006448006840F4807062490860FFF7C4FC3E
:1011B000054606E0FFF7C0FC401B022801D90320CA
:1011C000B8E65C48006800F480700028F2D000BFE8
:1011D000A068012808D154486830006840F0010038
:1011E0005149683108601DE0A06805280DD14E48BE
:1011F0006830006840F004004B49683108600846D8
:10120000006840F0010008600CE047486830006862
:1012100020F001004449683108600846006820F069
:101220000400086000BFA068A8B1FFF785FC054670
:1012300009E0FFF781FC401B41F28831884202D966
:10124000032077E626E0384868300068C0F34000A5
:101250000028EED013E0FFF76FFC054608E0FFF72B
:101260006BFC401B41F28831884201D9032061E6C2
:101270002D4868300068C0F340000028EFD1012FEE
:1012800007D129483830006820F08050264938318D
:10129000086000BFA069002845D02348006800F01E
:1012A0000C0008285DD0A069022845D100201F4904
:1012B0000866FFF741FC054606E0FFF73DFC401BD2
:1012C000022801D9032035E6174808380068C0F322
:1012D00040600028F1D1D4E907010843616A40EA7F
:1012E00081110122A06AC2EB500041EA00412C208A
:1012F000005D41EA00600C49091F086001200B49AC
:101300000866FFF719FC054606E0FFF715FC401BD1
:10131000022801D903200DE6034808380068C0F30D
:1013200040600028F1D03FE008380240000047420A
:10133000800E47420070004000201C490866FFF7FD
:10134000FBFB054606E0FFF7F7FB401B022801D92F
:101350000320EFE516480068C0F340600028F2D192
:1013600022E0A069012800D1E4E51148001D0668CB
:1013700006F48001E069814214D106F03F01206A41
:1013800081420FD147F6C0703040616A884209D16E
:1013900006F44031A06A814204D106F07061E06A2F
:1013A000814201D00120C5E50020C3E5000047428D
:1013B0000038024070B504462546681EB0F1807FB3
:1013C00001D301200FE0681E4FF0E02148610F219A
:1013D0004FF0FF3000F006FC00204FF0E021886164
:1013E00007200861002070BD7047704710B50446A3
:1013F0000CB9012010BD94F83D0028B9002084F8F4
:101400003C00204600F00CF8022084F83D00211D2D
:10141000206800F077FB012084F83D000020E9E718
:1014200038B504460E492068884217D100BF002015
:1014300000900C48006840F400300A4908600846F3
:10144000006800F40030009000BF00BF0022114689
:101450001920FFF7FFFB1920FFF7ECFB38BD000058
:10146000004401404438024001460868C06840F02A
:1014700001000B68D8600868806800F00702062A3F
:1014800005D00868006840F001000B681860002073
:101490007047704710B5044620680069C0F34000EB
:1014A000D8B12068C068C0F34000B0B16FF002004E
:1014B00021680861012020772068806900F003001E
:1014C00018B12046FFF7E5FF05E0204600F0ADF833
:1014D000204600F0ABF80020207720680069C0F3B8
:1014E0008000D8B12068C068C0F38000B0B16FF050
:1014F000040021680861022020772068806900F4D8
:10150000407018B12046FFF7C4FF05E0204600F008
:101510008CF8204600F08AF80020207720680069C7
:10152000C0F3C000D8B12068C068C0F3C000B0B13B
:101530006FF0080021680861042020772068C069E6
:1015400000F0030018B12046FFF7A3FF05E0204696
:1015500000F06BF8204600F069F800202077206842
:101560000069C0F30010D8B12068C068C0F3001053
:10157000B0B16FF010002168086108202077206862
:10158000C06900F4407018B12046FFF782FF05E003
:10159000204600F04AF8204600F048F80020207766
:1015A0002068006900F0010058B12068C06800F0B0
:1015B000010030B16FF0010021680861204600F0A1
:1015C00036F820680069C0F3C01058B12068C068C0
:1015D000C0F3C01030B16FF0800021680861204670
:1015E000FFF702FF20680069C0F3801058B120683F
:1015F000C068C0F3801030B16FF04000216808610E
:10160000204600F015F820680069C0F3401058B17A
:101610002068C068C0F3401030B16FF0200021682E
:1016200008612046FFF7E1FE10BD70477047704724
:10163000704700BFFEE710B5002000F007F801205A
:1016400000F004F80220FFF76BF910BD10B5044656
:10165000002280210B48FFF769FA204600F014F8B9
:10166000012240210748FFF761FA0220FFF758F9ED
:10167000002240210348FFF759FA0220FFF750F9F2
:1016800010BD00000000024010B5044604F0010047
:1016900028B1012211021C48FFF748FA05E0002298
:1016A0004FF480711848FFF741FA04F0020028B1A6
:1016B000012251021448FFF739FA05E000224FF4E5
:1016C00000711148FFF732FA04F0040028B101223A
:1016D00091020D48FFF72AFA05E000224FF48061DD
:1016E0000948FFF723FA04F0080028B10122D102CB
:1016F0000548FFF71BFA05E000224FF4006102489D
:10170000FFF714FA10BD00000000024000B587B0DA
:10171000142102A8FEF794FD0220FFF701F900BF93
:10172000002001903A48006840F001003849086004
:101730000846006800F00100019000BF00BF0022D1
:1017400089153448FFF7F2F900224FF4007131484F
:10175000FFF7ECF900224FF480612E48FFF7E6F91D
:1017600000224FF400612B48FFF7E0F900228021AE
:101770002848FFF7DBF9002240212648FFF7D6F979
:101780004FF47C60029001200390002004900590AB
:1017900002A92048FFF7D8F8002280211D48FFF752
:1017A000C5F9002240211B48FFF7C0F90020FFF7D0
:1017B0006BFF0220FFF7B4F83020FFF747FF02204D
:1017C000FFF7AEF83020FFF741FF0220FFF7A8F83F
:1017D0003020FFF73BFF0220FFF738FF0220FFF722
:1017E00035FF0820FFF732FF0020FFF72FFF0C2006
:1017F000FFF72CFF0020FFF729FF0620FFF726FF49
:101800000020FFF723FF0120FFF720FF07B000BDF6
:1018100030380240000002402DE9F04105460E46F6
:10182000012D0CD106F17F00C4B24FEA241804F058
:101830000F074046FFF70AFF3846FFF707FF022D64
:101840000CD106F1BF00C4B24FEA241804F00F0710
:101850004046FFF7FBFE3846FFF7F8FE0220FFF791
:101860005FF8BDE8F081000070B5044604F00F0594
:1018700004F0F006012280211648FFF757F90220F4
:10188000FFF74EF83011FFF7FFFE0122402111480B
:10189000FFF74CF90220FFF743F8002240210D48E2
:1018A000FFF744F90220FFF73BF82846FFF7ECFE6C
:1018B000012240210748FFF739F90220FFF730F8ED
:1018C000002240210348FFF731F90220FFF728F8F2
:1018D00070BD00000000024070B50446002503E022
:1018E000605DFFF7C1FF6D1C605D0028F8D170BD21
:1018F00000B587B0142102A8FEF7A2FC00BF0020AB
:1019000001901D48006840F004001B49086008462B
:10191000006800F00400019000BF00BF00BF00207D
:1019200001900846006840F0010008600846006821
:1019300000F00100019000BF00BF00224FF4FF51F2
:101940000E48FFF7F3F84FF4005002900C48039054
:101950000020049002A90B48FEF7F6FF4FF4FF5059
:1019600002900120039000200490059002A90348F2
:10197000FEF7EAFF07B000BD303802400000024029
:10198000000021100008024010B50A480A4908600A
:10199000532048600021084881604FF6FE71C16005
:1019A000002101618161FFF721FD08B1FEF7B4FF5D
:1019B00010BD0000004401402800002000BFFEE7E9
:1019C00000BFFEE77047704730B585B005460C464E
:1019D00014216846FEF734FC009400200190022098
:1019E00003900020029069462846FEF7ADFF05B03F
:1019F00030BD30B585B005460C4614216846FEF76B
:101A00001FFC0094012001900220039069462846A3
:101A1000FEF79AFF05B030BD10B5FFF793F810BD83
:101A200000B593B0302107A8FEF70AFC142102A8E4
:101A3000FEF706FC00BF002001902548006840F03A
:101A40008050234908600846006800F080500190EB
:101A500000BF00BF00BF002001901E48006820F4B6
:101A6000404040F400401B4908600846006800F40C
:101A70004040019000BF00BF0220079001200A9063
:101A800010200B9002200D9000210E9108210F9143
:101A900054211091022111910721129107A8FFF7FB
:101AA00045FA08B1FEF738FF0F200290022003909C
:101AB000002004904FF4805005900690022102A867
:101AC000FFF71AF908B1FEF727FF13B000BD0000B9
:101AD00040380240007000400548006840F4700043
:101AE000034908604FF00060014980390860704781
:101AF00088ED00E010B50248FFF7CCFC10BD0000F7
:101B00002800002010B50268204B98420BD0B0F19D
:101B1000804F08D01E4B984205D01E4B984202D0F1
:101B20001D4B984203D122F070024B681A43174BA9
:101B3000984214D0B0F1804F11D0154B98420ED07E
:101B4000144B98420BD0144B984208D0134B984238
:101B500005D0134B984202D0124B984203D122F485
:101B60004072CB681A4322F080034C6943EA0402B6
:101B700002608B68C3620B688362044B984201D198
:101B80000B6903630123436110BD000000000140A5
:101B90000004004000080040000C004000400140EC
:101BA000004401400048014000BFFEE70FB4084B6D
:101BB00010B504A902AA039800F0FAF8044602A995
:101BC000002000F078FC204610BC5DF814FB0000FB
:101BD000B724000802480068C0F3022070470000E4
:101BE0000CED00E010B5002804DB0A07130E054ACF
:101BF000135406E00A07140E034A00F00F031B1FDC
:101C0000D45410BD00E400E018ED00E002E008C884
:101C1000121F08C1002AFAD170477047002001E066
:101C200001C1121F002AFBD1704700002DE9FF5FA0
:101C300082B00021DDE90430020DDDF840B003433D
:101C400018D044F61050A2F2FF32424315141198F6
:101C500001281FD0A5EB0B00401C5FEA000A4FF0E3
:101C600000064E4FDFF83891B046504615D5CAF100
:101C7000000413E0119801244AA3012801D16FEA5E
:101C80000B010298119AC0E90031C0E9024206B086
:101C9000BDE8F09FCBF10000DFE704460021404A99
:101CA000491842EB0450CDE9001012E0E00707D0DC
:101CB00032463B4640464946FEF7BCFB80468946D5
:101CC00032463B4610461946FEF7B4FB06460F4621
:101CD0006410002CEAD1DDE90401DDE90023BAF14A
:101CE000000F06DAFEF7A6FB42464B46FEF7A2FBC4
:101CF00005E0FEF711FC42464B46FEF70DFC04469C
:101D00000E460022284BFEF78FFC03D84FF0FF3021
:101D1000014607E00022254B20463146FEF7E3FA54
:101D2000FEF769FC102409E0002C0ADB0A220023DC
:101D3000FEF74EFA039B30321A55641E50EA010238
:101D4000F2D1641C039AC4F111031444119A012ABC
:101D500003D0012208430DD10AE0084304D000203B
:101D60004FF0110B119072E7A3EB0B056D1E0DE008
:101D70005B4504DD4FF0000205F1010504E003DAE4
:101D80004FF00002A5F10105002AECD0029811994C
:101D9000C0E90231C0E9004579E7000000001440C5
:101DA0000000F03F300000000000F0430000E03F82
:101DB0002DE9FF4F95B09A46884606460025EEE18C
:101DC000252877D100242746F94A0121039400E011
:101DD000044316F8013F203B01FA03F01042F7D10B
:101DE00030782A2811D06FF02F033078A0F130021C
:101DF000092A16D8039A44F0020402EB820203EB8C
:101E000042021044761C0390EFE758F8042B03922B
:101E1000002A03DA504244F40054039044F00204D0
:101E2000761C30782E2816D116F8010F44F00404E1
:101E30002A280DD06FF02F023078A0F13003092B43
:101E400009D807EB870302EB4303C718761CF3E7B7
:101E500058F8047B761C30786C280FD006DC4C28B0
:101E600017D068280DD06A2814D104E0742810D047
:101E70007A280FD10DE044F400140AE044F48014F1
:101E800001E044F440147278824202D104F58014D7
:101E9000761C761C307866280BD013DC582877D057
:101EA00009DC002875D04528F6D04628F4D047280C
:101EB0001AD193E118E0632835D0642879D06528D9
:101EC00012D18BE1702873D008DC6728F1D0692823
:101ED0006FD06E280DD06F2806D1ACE073282CD0BF
:101EE000752874D0782853D05246179990476D1CA6
:101EF00054E1C4F30250022809D003280DD0D8F8C9
:101F0000001004280DD00D6008F1040846E1D8F84F
:101F10000010EA17C1E90052F6E7D8F800100D806A
:101F2000F2E70D70F0E718F8041B8DF800100020A0
:101F30008DF80100EB46012003E058F804BB4FF098
:101F4000FF3061074FF0000102D40DE009F10101FB
:101F50008946B9420FDA8145F8DB1BF809100029E0
:101F6000F4D108E009F1010189468142FADB1BF84E
:101F700009100029F6D103985346A0EB0907214622
:101F80003846179A00F080FA284400EB090507E06C
:101F900044E008E10DE01BF8010B52461799904709
:101FA000B9F10109F7D2534621463846179AF2E0B3
:101FB00039E00A21C4F302524FF0000B0091022ACB
:101FC00006D058F8040BC117032A09D00AE023E011
:101FD00008F1070020F00702F2E80201904605E050
:101FE00000B2C117042A01D140B2C117002906DA94
:101FF0000A460021404261EB02012D2202E0220547
:1020000004D52B228DF80420012203E0E20701D041
:102010002022F7E7914657E00A2100E010214FF017
:10202000000B00910BE010214FF0000B44F0040472
:102030000827009103E008204FF0000B0090C4F344
:102040000252022A05D058F8040B0021032A08D0B6
:1020500008E008F1070020F00702F2E802019046CC
:1020600003E080B2042A00D1C0B24FF00009220779
:102070002AD53278702A07D0DDF800C08CF0100C19
:102080005CEA0B0C05D00EE040228DF80420012202
:1020900008E050EA010306D030238DF804308DF8B3
:1020A000052002229146009B83F0080353EA0B03AC
:1020B0000AD150EA010201D1620705D530228DF81C
:1020C00004204FF001097F1E3278582A04D039A22B
:1020D0000C920CAA02920BE03BA2F9E75B46009A35
:1020E000FEF776F80C9B9B5C029A521E02921370CC
:1020F00050EA0102F2D1029804A9081A00F1200B5B
:10210000600702D524F4803400E001275F4502DD3A
:10211000A7EB0B0000E0002000EB0B010090039800
:102120004944401A0390E00306D453462146179AC7
:10213000039800F0A9F90544002706E001A85246DB
:10214000C05D179990476D1C7F1C4F45F6DBE0037F
:102150000CD553462146179A039800F095F905448B
:1021600004E030205246179990476D1C0099481E94
:1021700000900029F5DC08E00298029952460078A8
:10218000491C0291179990476D1CBBF10001ABF1FE
:10219000010BF1DC5BE100F065F90544761C307859
:1021A00000287FF40DAE19B02846BDE8F08F00007E
:1021B000092801003031323334353637383961621D
:1021C00063646566000000003031323334353637E1
:1021D000383941424344454600000000600700D4BE
:1021E000062708F1070020F00700F0E802238046E8
:1021F00003F0004C5FEA0C0001D097A009E0200535
:1022000001D596A005E0E00701D095A001E0AFF26E
:102210004C001390307823F0004365280CD006DC86
:10222000452809D046281DD047287FD13BE06628A5
:1022300018D067287AD136E00021112F01DB112058
:1022400000E0781CCDE9000104A90CA8FFF7EEFC22
:10225000DDE90D010C9A4FF0000B07F10109109216
:1022600000914EE04FF000400097CDE9011004A925
:102270000CA8FFF7DBFCDDE90D020C9B0F994FF07A
:10228000000B91461093009211B9791C00EB0109E3
:10229000B7EB090003D4C0F1FF3B07F10109A9EB3B
:1022A0000700019042E0012F00DA01270021112FE1
:1022B00001DD112000E03846CDE9000104A90CA899
:1022C000FFF7B4FCDDE90D010C9A00914FF0000B13
:1022D000B946109221070FD4009A4A4503DA914675
:1022E00001E0A9F10109B9F1010F05DD109AA9F189
:1022F0000101515C3029F4D0B84202DA10F1040F28
:1023000003DA0121CDE9011010E0002803DC834449
:10231000A9EB000102E0411C494500DD8946A0EB24
:102320000B00401C01904FF000400290200705D4A4
:102330000198484502DB4FF0FF30019000208DF8F6
:102340004B0002980DF14B07B0F1004F25D0022051
:102350000C902B200D90029800280CDA404202903D
:102360002D200D9007E00A210298FDF787FF3031FC
:10237000029007F8011D0C99481E0C900029F2DC10
:1023800002980028EFD1791E0D980870307800F07F
:10239000200040F0450007F8020D11A8C01BC01D29
:1023A00002901398007800B1012000EB0901019818
:1023B00001EBE071029801440398401A401E03901B
:1023C000E00306D453462146179A039800F05CF8C0
:1023D00005441398007818B15246179990476D1C20
:1023E000E00323D553462146179A039800F04CF892
:1023F00005441BE0BBF1000F07DB0098584504DDE6
:102400001098179910F80B0001E0179930205246E8
:10241000904701980BF1010B401E05F10105019059
:1024200004D12E205246179990476D1CB9F1000136
:10243000A9F10109DEDC05E017F8010B52461799F6
:1024400090476D1C0299481E02900029F4DC534607
:102450002146179A03989EE62D0000002B000000ED
:10246000200000002DE9F041044600251E461746D5
:10247000880404D405E039462020B0476D1C641E52
:10248000F9D52846BDE8F0812DE9F0410446002544
:102490001E469046C80301D5302700E02027880457
:1024A00004D505E041463846B0476D1C641EF9D599
:1024B0002846BDE8F0810A68531C0B601070704715
:1024C0000021054A1268516200BF03490968496A40
:1024D0008142FAD37047000028000020FEF73EFB3F
:1024E000FFF79EFAFFF704FAFFF74EFA2A48FEF7C5
:1024F000BBFF4FF4FA70FEF713FAFFF707F96420F9
:10250000FEF70EFAFFF797F86420FEF709FA41E0AC
:10251000224890ED000AFEF7D5F9214890ED000A17
:10252000FEF79CF9FEF71CF9FEF772F91D490870D9
:10253000FEF73EF91C490870FEF73AF91B4908708E
:10254000FEF736F91A490870FEF732F91949087092
:10255000FEF72EF9184908601548007817490880D9
:1025600011480078164908801448008800EE100AC7
:10257000B8EE400A094880ED000A0846008800EEDF
:10258000100AB8EE400A064880ED000A4FF4967033
:10259000FEF7C6F9BCE70000280000200C00002070
:1025A0001000002014000020000000200100002086
:1025B0000200002003000020080000200600002088
:1025C00004000020000000000000000001020304DD
:1025D000060708090000000001020304FC250008AA
:1025E00000000020280000000C1C00082426000821
:1025F00028000020400400001C1C0008000000000F
:1026000000000000000000000000000000000000CA
:1026100000000000000000001000000001000000A9
:042620000024F4009E
:040000050800019559
:00000001FF
